{
  "contractName": "ContractTest",
  "abi": [
    {
      "inputs": [],
      "name": "cod_licitacao",
      "outputs": [
        {
          "internalType": "uint256",
          "name": "",
          "type": "uint256"
        }
      ],
      "stateMutability": "view",
      "type": "function",
      "constant": true
    },
    {
      "inputs": [],
      "name": "data",
      "outputs": [
        {
          "internalType": "uint256",
          "name": "",
          "type": "uint256"
        }
      ],
      "stateMutability": "view",
      "type": "function",
      "constant": true
    },
    {
      "inputs": [],
      "name": "objeto",
      "outputs": [
        {
          "internalType": "string",
          "name": "",
          "type": "string"
        }
      ],
      "stateMutability": "view",
      "type": "function",
      "constant": true
    },
    {
      "inputs": [],
      "name": "orgao",
      "outputs": [
        {
          "internalType": "string",
          "name": "",
          "type": "string"
        }
      ],
      "stateMutability": "view",
      "type": "function",
      "constant": true
    },
    {
      "inputs": [
        {
          "internalType": "uint256",
          "name": "_cod_licitacao",
          "type": "uint256"
        },
        {
          "internalType": "string",
          "name": "_objeto",
          "type": "string"
        },
        {
          "internalType": "uint256",
          "name": "_data",
          "type": "uint256"
        },
        {
          "internalType": "string",
          "name": "_orgao",
          "type": "string"
        }
      ],
      "name": "setAttributes",
      "outputs": [],
      "stateMutability": "nonpayable",
      "type": "function"
    },
    {
      "inputs": [],
      "name": "getCodLicitacao",
      "outputs": [
        {
          "internalType": "uint256",
          "name": "",
          "type": "uint256"
        }
      ],
      "stateMutability": "view",
      "type": "function",
      "constant": true
    },
    {
      "inputs": [],
      "name": "getObjeto",
      "outputs": [
        {
          "internalType": "string",
          "name": "",
          "type": "string"
        }
      ],
      "stateMutability": "view",
      "type": "function",
      "constant": true
    },
    {
      "inputs": [],
      "name": "getData",
      "outputs": [
        {
          "internalType": "uint256",
          "name": "",
          "type": "uint256"
        }
      ],
      "stateMutability": "view",
      "type": "function",
      "constant": true
    },
    {
      "inputs": [],
      "name": "getOrgao",
      "outputs": [
        {
          "internalType": "string",
          "name": "",
          "type": "string"
        }
      ],
      "stateMutability": "view",
      "type": "function",
      "constant": true
    }
  ],
  "bytecode": "0x608060405234801561001057600080fd5b50610a45806100206000396000f3fe608060405234801561001057600080fd5b50600436106100935760003560e01c806370e71b9f1161006657806370e71b9f1461011057806373d4a13a1461012e578063ef1708f21461014c578063f2da00201461016a578063f9d0aa141461018857610093565b80632537f220146100985780633bc5de30146100b65780634fb86f89146100d4578063708792ac146100f2575b600080fd5b6100a06101a4565b6040516100ad91906104c7565b60405180910390f35b6100be610236565b6040516100cb9190610502565b60405180910390f35b6100dc610240565b6040516100e99190610502565b60405180910390f35b6100fa610249565b60405161010791906104c7565b60405180910390f35b6101186102d7565b60405161012591906104c7565b60405180910390f35b610136610369565b6040516101439190610502565b60405180910390f35b61015461036f565b6040516101619190610502565b60405180910390f35b610172610375565b60405161017f91906104c7565b60405180910390f35b6101a2600480360381019061019d9190610692565b610403565b005b6060600180546101b390610760565b80601f01602080910402602001604051908101604052809291908181526020018280546101df90610760565b801561022c5780601f106102015761010080835404028352916020019161022c565b820191906000526020600020905b81548152906001019060200180831161020f57829003601f168201915b5050505050905090565b6000600254905090565b60008054905090565b6001805461025690610760565b80601f016020809104026020016040519081016040528092919081815260200182805461028290610760565b80156102cf5780601f106102a4576101008083540402835291602001916102cf565b820191906000526020600020905b8154815290600101906020018083116102b257829003601f168201915b505050505081565b6060600380546102e690610760565b80601f016020809104026020016040519081016040528092919081815260200182805461031290610760565b801561035f5780601f106103345761010080835404028352916020019161035f565b820191906000526020600020905b81548152906001019060200180831161034257829003601f168201915b5050505050905090565b60025481565b60005481565b6003805461038290610760565b80601f01602080910402602001604051908101604052809291908181526020018280546103ae90610760565b80156103fb5780601f106103d0576101008083540402835291602001916103fb565b820191906000526020600020905b8154815290600101906020018083116103de57829003601f168201915b505050505081565b836000819055508260019081610419919061093d565b50816002819055508060039081610430919061093d565b5050505050565b600081519050919050565b600082825260208201905092915050565b60005b83811015610471578082015181840152602081019050610456565b60008484015250505050565b6000601f19601f8301169050919050565b600061049982610437565b6104a38185610442565b93506104b3818560208601610453565b6104bc8161047d565b840191505092915050565b600060208201905081810360008301526104e1818461048e565b905092915050565b6000819050919050565b6104fc816104e9565b82525050565b600060208201905061051760008301846104f3565b92915050565b6000604051905090565b600080fd5b600080fd5b61053a816104e9565b811461054557600080fd5b50565b60008135905061055781610531565b92915050565b600080fd5b600080fd5b7f4e487b7100000000000000000000000000000000000000000000000000000000600052604160045260246000fd5b61059f8261047d565b810181811067ffffffffffffffff821117156105be576105bd610567565b5b80604052505050565b60006105d161051d565b90506105dd8282610596565b919050565b600067ffffffffffffffff8211156105fd576105fc610567565b5b6106068261047d565b9050602081019050919050565b82818337600083830152505050565b6000610635610630846105e2565b6105c7565b90508281526020810184848401111561065157610650610562565b5b61065c848285610613565b509392505050565b600082601f8301126106795761067861055d565b5b8135610689848260208601610622565b91505092915050565b600080600080608085870312156106ac576106ab610527565b5b60006106ba87828801610548565b945050602085013567ffffffffffffffff8111156106db576106da61052c565b5b6106e787828801610664565b93505060406106f887828801610548565b925050606085013567ffffffffffffffff8111156107195761071861052c565b5b61072587828801610664565b91505092959194509250565b7f4e487b7100000000000000000000000000000000000000000000000000000000600052602260045260246000fd5b6000600282049050600182168061077857607f821691505b60208210810361078b5761078a610731565b5b50919050565b60008190508160005260206000209050919050565b60006020601f8301049050919050565b600082821b905092915050565b6000600883026107f37fffffffffffffffffffffffffffffffffffffffffffffffffffffffffffffffff826107b6565b6107fd86836107b6565b95508019841693508086168417925050509392505050565b6000819050919050565b600061083a610835610830846104e9565b610815565b6104e9565b9050919050565b6000819050919050565b6108548361081f565b61086861086082610841565b8484546107c3565b825550505050565b600090565b61087d610870565b61088881848461084b565b505050565b5b818110156108ac576108a1600082610875565b60018101905061088e565b5050565b601f8211156108f1576108c281610791565b6108cb846107a6565b810160208510156108da578190505b6108ee6108e6856107a6565b83018261088d565b50505b505050565b600082821c905092915050565b6000610914600019846008026108f6565b1980831691505092915050565b600061092d8383610903565b9150826002028217905092915050565b61094682610437565b67ffffffffffffffff81111561095f5761095e610567565b5b6109698254610760565b6109748282856108b0565b600060209050601f8311600181146109a75760008415610995578287015190505b61099f8582610921565b865550610a07565b601f1984166109b586610791565b60005b828110156109dd578489015182556001820191506020850194506020810190506109b8565b868310156109fa57848901516109f6601f891682610903565b8355505b6001600288020188555050505b50505050505056fea2646970667358221220ee8c0d6c7c5536210c0df460841fca8834a85a8e5acdc877fe994f7183a4831764736f6c63430008120033",
  "immutableReferences": {},
  "source": "// SPDX-License-Identifier: MIT\npragma solidity ^0.8.7;\n\ncontract ContractTest {\n    uint public cod_licitacao;\n    string public objeto;\n    uint public data;\n    string public orgao;\n\n    function setAttributes(uint _cod_licitacao, string memory _objeto, uint _data, string memory _orgao) public {\n        cod_licitacao = _cod_licitacao;\n        objeto = _objeto;\n        data = _data;\n        orgao = _orgao;\n    }\n\n    function getCodLicitacao() public view returns (uint) {\n        return cod_licitacao;\n    }\n\n    function getObjeto() public view returns (string memory) {\n        return objeto;\n    }\n\n    function getData() public view returns (uint) {\n        return data;\n    }\n\n    function getOrgao() public view returns (string memory) {\n        return orgao;\n    }\n}\n",
  "sourcePath": "C:\\Users\\USER\\Documents\\DEV\\exemplo-smartContract\\contracts\\contractTest.sol",
  "compiler": {
    "name": "solc",
    "version": "0.8.18+commit.87f61d96.Emscripten.clang"
  },
  "schemaVersion": "3.4.12",
  "updatedAt": "2023-03-01T23:25:23.868Z",
  "networkType": "ethereum",
  "devdoc": {
    "kind": "dev",
    "methods": {},
    "version": 1
  },
  "userdoc": {
    "kind": "user",
    "methods": {},
    "version": 1
  }
}